S01200004D41535445525F5350492E73726563FB
S11300000C942A000C9434000C9434000C943400A6
S11300100C9434000C9434000C9434000C9434008C
S11300200C9434000C9434000C9434000C9434007C
S11300300C9434000C9434000C9434000C9434006C
S11300400C9434000C9434000C9434000C9434005C
S11300500C94340011241FBECFE5D8E0DEBFCDBF21
S11300600E94A7000C94DE000C940000683008F095
S11300706DC04130A1F5813089F028F08230C9F09B
S1130080833011F108952AB381E090E002C0880F13
S1130090991F6A95E2F7822B8ABB089527B381E002
S11300A090E002C0880F991F6A95E2F7822B87BB04
S11300B0089524B381E090E002C0880F991F6A95E7
S11300C0E2F7822B84BB089521B381E090E002C063
S11300D0880F991F6A95E2F7822B81BB08958130BE
S11300E091F028F08230D9F0833029F108952AB3B1
S11300F081E090E002C0880F991F6A95E2F780952D
S113010082238ABB089527B381E090E002C0880F60
S1130110991F6A95E2F78095822387BB089524B3DB
S113012081E090E002C0880F991F6A95E2F78095FC
S1130130822384BB089521B381E090E002C0880F3C
S1130140991F6A95E2F78095822381BB08950E94E6
S1130150B6002FEF83EC99E0215080409040E1F706
S113016000C0000086E40E94D100FCCF40E066E0BD
S113017081E00E94360041E065E081E00E943600A3
S113018041E067E081E00E94360041E064E081E004
S11301900E9436008DB180618DB98DB180648DB9B6
S11301A008958FB9779BFECF2FEF89E698E1215010
S11301B080409040E1F700C000000895F894FFCF1C
S9030000FC
