S015000054494D4552315F4452495645522E7372656332
S11300000C942A000C9434000C9434000C943400A6
S11300100C9434000C9434000C9434000C9434008C
S11300200C9434000C9434000C9434000C9434007C
S11300300C9434000C9434000C9434000C9434006C
S11300400C9434000C9434000C9434000C9434005C
S11300500C94340011241FBECFE5D8E0DEBFCDBF21
S11300600E94A7000C94F1000C940000683008F082
S11300706DC04130A1F5813089F028F08230C9F09B
S1130080833011F108952AB381E090E002C0880F13
S1130090991F6A95E2F7822B8ABB089527B381E002
S11300A090E002C0880F991F6A95E2F7822B87BB04
S11300B0089524B381E090E002C0880F991F6A95E7
S11300C0E2F7822B84BB089521B381E090E002C063
S11300D0880F991F6A95E2F7822B81BB08958130BE
S11300E091F028F08230D9F0833029F108952AB3B1
S11300F081E090E002C0880F991F6A95E2F780952D
S113010082238ABB089527B381E090E002C0880F60
S1130110991F6A95E2F78095822387BB089524B3DB
S113012081E090E002C0880F991F6A95E2F78095FC
S1130130822384BB089521B381E090E002C0880F3C
S1130140991F6A95E2F78095822381BB08950E94E6
S1130150CE0041E065E083E00E9436000F2EF0ED12
S1130160CF2EF7E0DF2EE12CF12CF02D0FC0C701CC
S1130170B6010E94EE008FE19EE40197F1F700C002
S113018000009FEFC91AD90AE90AF90A81EAC816D8
S11301908FE0D806E104F10454F3E0CF8FB5806812
S11301A08FBD8FB58F7B8FBD8FB58E7F8FBD8FB584
S11301B082608FBD8EB588608EBD8EB580618EBD28
S11301C080E49CE997BD86BD8EB58E7F8EBD8EB5CD
S11301D082608EBD8EB58B7F8EBD08957BBD6ABD5A
S10901E00895F894FFCF1E
S9030000FC
