:100000000C942A000C9447000C9447000C94470071
:100010000C9447000C9447000C9447000C94470044
:100020000C9447000C9447000C9447000C94470034
:100030000C9447000C9447000C9447000C94470024
:100040000C9447000C9447000C9447000C94470014
:100050000C94470011241FBECFE5D8E0DEBFCDBF12
:1000600010E0A0E6B0E0ECE9F6E002C005900D92E9
:10007000AE36B107D9F720E0AEE6B0E001C01D9280
:10008000AE36B207E1F70E9471020C944C030C9457
:10009000000087B1806487B986B1816086B986B176
:1000A000826086B986B1846086B986B1806886B977
:1000B0000895CF93C82F40E0682F80E00E946C0025
:1000C00087B18C2B87B986B1806486B93699FECF0B
:1000D00084B195B1CF910895683008F06DC041307A
:1000E000A1F5813089F028F08230C9F0833011F118
:1000F00008952AB381E090E002C0880F991F6A95A5
:10010000E2F7822B8ABB089527B381E090E002C01A
:10011000880F991F6A95E2F7822B87BB089524B355
:1001200081E090E002C0880F991F6A95E2F7822B68
:1001300084BB089521B381E090E002C0880F991F2D
:100140006A95E2F7822B81BB0895813091F028F007
:100150008230D9F0833029F108952AB381E090E00C
:1001600002C0880F991F6A95E2F7809582238ABBA7
:10017000089527B381E090E002C0880F991F6A9527
:10018000E2F78095822387BB089524B381E090E055
:1001900002C0880F991F6A95E2F78095822384BB7D
:1001A000089521B381E090E002C0880F991F6A95FD
:1001B000E2F78095822381BB0895683008F06DC016
:1001C0004130A1F5813089F028F08230C9F08330C8
:1001D00011F108952BB381E090E002C0880F991FC0
:1001E0006A95E2F7822B8BBB089528B381E090E0FB
:1001F00002C0880F991F6A95E2F7822B88BB089589
:1002000025B381E090E002C0880F991F6A95E2F75C
:10021000822B85BB089522B381E090E002C0880F55
:10022000991F6A95E2F7822B82BB0895813091F085
:1002300028F08230D9F0833029F108952BB381E082
:1002400090E002C0880F991F6A95E2F7809582239B
:100250008BBB089528B381E090E002C0880F991FFE
:100260006A95E2F78095822388BB089525B381E0E3
:1002700090E002C0880F991F6A95E2F7809582236B
:1002800085BB089522B381E090E002C0880F991FDA
:100290006A95E2F78095822382BB08950F931F939E
:1002A000CF93DF9300D000D0CDB7DEB7082F84E026
:1002B000898385E08A8386E08B8387E08C8310E0E6
:1002C00014C0402F50E0012E02C0559547950A9466
:1002D000E2F74170E1E0F0E0EC0FFD1FE10FF11DEE
:1002E000608181E00E94DD001F5F143050F30F90A9
:1002F0000F900F900F90DF91CF911F910F91089564
:1003000041E063E081E00E94DD008FE39FE101971F
:10031000F1F700C0000040E063E081E00E94DD00F2
:100320000895CF93C82F40E061E081E00E94DD0096
:1003300040E062E081E00E94DD008C2F82958F70AA
:100340000E944E010E9480018C2F0E944E010E944B
:100350008001CF9108952FEF83EF91E021508040ED
:100360009040E1F700C0000082E00E944E010E9430
:10037000800182E00E944E010E9480018CE00E9478
:100380004E010E9480018CE00E94910181E00E9458
:1003900091010895CF93C82F41E061E081E00E9470
:1003A000DD0040E062E081E00E94DD008C2F82955C
:1003B0008F700E944E010E9480018C2F0E944E017E
:1003C0000E948001CF9108950F931F93CF938C01CA
:1003D000C0E003C00E94CA01CF5FF801EC0FF11D1D
:1003E00080818111F7CFCF911F910F9108956F9266
:1003F0007F928F929F92AF92BF92CF92DF92EF92B5
:10040000FF920F931F93CF93DF93CDB7DEB74C01CD
:10041000CDB6DEB6009721F480E30E94CA014DC03C
:10042000992334F49194819491088DE20E94CA0139
:10043000C40110E006C06AE070E00E94CD02CB016A
:100440001F5F0097C1F7ADB6BEB6E12FF0E08DB7E4
:100450009EB78E1B9F0B0FB6F8949EBF0FBE8DBF2D
:1004600001963C017C0120E012C0C4016AE070E00A
:100470000E94CD024B01422F50E04F5F5F4FDF01E2
:10048000A41BB50BAE0DBF1D805D8C932F5F211794
:1004900060F3E60DF71D80E3808300E007C0F701FD
:1004A000E00FF11D80810E94CA010F5F0117B8F3B0
:1004B0000FB6F894BEBE0FBEADBE0FB6F894DEBE4A
:1004C0000FBECDBEDF91CF911F910F91FF90EF90A6
:1004D000DF90CF90BF90AF909F908F907F906F9064
:1004E000089541E061E081E00E946C0041E062E03B
:1004F00081E00E946C0041E063E081E00E946C00BA
:100500000E94AB010E94490041E060E080E00E944F
:100510006C0041E061E082E00E946C0041E060E03C
:1005200082E00E946C0080E00E94590024EF31E0DC
:10053000DC010E9400032FEF33E040E050E00E9416
:10054000E10269017A0180E80E94910180E690E071
:100550000E94E401C6010E94F7018AE690E00E9431
:10056000E40183E2C816D104E104F1045CF040E048
:1005700061E082E00E94DD0041E060E082E00E94F4
:10058000DD00D1CF40E060E082E00E94DD0041E08C
:1005900061E082E00E94DD00C6CF97FB072E16F4D3
:1005A000009407D077FD09D00E94070307FC05D00F
:1005B0003EF4909581959F4F0895709561957F4F7A
:1005C0000895052E97FB1EF400940E94F80257FD33
:1005D00007D00E941B0307FC03D04EF40C94F802D2
:1005E00050954095309521953F4F4F4F5F4F08955F
:1005F00090958095709561957F4F8F4F9F4F08958F
:100600000E943D03B7FF0895821B930B0895AA1B18
:10061000BB1B51E107C0AA1FBB1FA617B70710F0ED
:10062000A61BB70B881F991F5A95A9F7809590951F
:10063000BC01CD010895A1E21A2EAA1BBB1BFD012E
:100640000DC0AA1FBB1FEE1FFF1FA217B307E407B1
:10065000F50720F0A21BB30BE40BF50B661F771F09
:10066000881F991F1A9469F76095709580959095E9
:100670009B01AC01BD01CF010895A29FB001B39FC2
:10068000C001A39F700D811D1124911DB29F700D9B
:0C069000811D1124911D0895F894FFCFE6
:0E069C0054656D70206973203A0027430000FA
:00000001FF
