S01200004C43442B4B45595041442E7372656356
S11300000C942A000C943F000C943F000C943F0085
S11300100C943F000C943F000C943F000C943F0060
S11300200C943F000C943F000C943F000C943F0050
S11300300C943F000C943F000C943F000C943F0040
S11300400C943F000C943F000C943F000C943F0030
S11300500C943F0011241FBECFE5D8E0DEBFCDBF16
S113006010E0A0E6B0E0E4E5F5E002C005900D92F2
S1130070A837B107D9F70E948A020C94A8020C94FD
S11300800000683008F06DC04130A1F5813089F07E
S113009028F08230C9F0833011F108952AB381E049
S11300A090E002C0880F991F6A95E2F7822B8ABB01
S11300B0089527B381E090E002C0880F991F6A95E4
S11300C0E2F7822B87BB089524B381E090E002C05D
S11300D0880F991F6A95E2F7822B84BB089521B398
S11300E081E090E002C0880F991F6A95E2F7822BA5
S11300F081BB0895813091F028F08230D9F08330AB
S113010029F108952AB381E090E002C0880F991F75
S11301106A95E2F7809582238ABB089527B381E02C
S113012090E002C0880F991F6A95E2F780958223B8
S113013087BB089524B381E090E002C0880F991F23
S11301406A95E2F78095822384BB089521B381E008
S113015090E002C0880F991F6A95E2F78095822388
S113016081BB0895683008F06DC04130A1F581303D
S113017089F028F08230C9F0833011F108952BB34F
S113018081E090E002C0880F991F6A95E2F7822B04
S11301908BBB089528B381E090E002C0880F991FBB
S11301A06A95E2F7822B88BB089525B381E090E03D
S11301B002C0880F991F6A95E2F7822B85BB0895C8
S11301C022B381E090E002C0880F991F6A95E2F79C
S11301D0822B82BB0895813091F028F08230D9F0CF
S11301E0833029F108952BB381E090E002C0880F99
S11301F0991F6A95E2F7809582238BBB089528B3F3
S113020081E090E002C0880F991F6A95E2F780951B
S1130210822388BB089525B381E090E002C0880F53
S1130220991F6A95E2F78095822385BB089522B3CE
S113023081E090E002C0880F991F6A95E2F78095EB
S1130240822382BB0895683060F5813079F028F00C
S11302508230A9F08330E1F026C089B390E002C077
S1130260959587956A95E2F78170089589B390E032
S113027002C0959587956A95E2F78170089589B3D0
S113028090E002C0959587956A95E2F7817008958C
S113029089B390E002C0959587956A95E2F78170DD
S11302A0089580E0089580E00895613099F48130E4
S11302B049F028F0823049F0833051F00BC09FEFB1
S11302C09ABB08C09FEF97BB05C09FEF94BB02C0C9
S11302D09FEF91BB61110FC0813041F028F0823053
S11302E039F0833039F008951ABA089517BA089589
S11302F014BA089511BA08951F93CF93DF9310E0B1
S11303000FC0C12FD0E0CC58DF4F40E0688182E0BD
S11303100E94410041E0688182E00E94B2001F5FB8
S1130320143078F310E00FC0C12FD0E0C059DF4F74
S113033041E0688182E00E94410041E0688182E0FE
S11303400E94B2001F5F143078F3DF91CF911F91A8
S11303500895EF92FF920F931F93CF93DF93D0E012
S113036039C0ED2EF12CF701E059FF4F40E06081D8
S113037082E00E94B200C0E022C00C2F10E0F8011D
S1130380EC58FF4F608182E00E942301811116C066
S1130390C801880F991F880F991F805A9F4FFC012D
S11303A0EE0DFF1DC081F801EC58FF4F608182E023
S11303B00E9423018823B9F38C2F0FC0CF5FC43070
S11303C0E0F2F701E059FF4F41E0608182E00E94D2
S11303D0B200DF5FD43028F280E0DF91CF911F912B
S11303E00F91FF90EF9008950F931F93CF93DF9396
S11303F000D000D0CDB7DEB7082F84E0898385E034
S11304008A8386E08B8387E08C8310E014C0402FBE
S113041050E0012E02C0559547950A94E2F74170C9
S1130420E1E0F0E0EC0FFD1FE10FF11D608180E0E1
S11304300E94B2001F5F143050F30F900F900F9082
S11304400F90DF91CF911F910F91089541E063E0E8
S113045081E00E94B2008FE39FE10197F1F700C0B1
S1130460000040E063E081E00E94B2000895CF9371
S1130470C82F40E061E081E00E94B20040E062E009
S113048081E00E94B2008C2F82958F700E94F4014B
S11304900E9426028C2F0E94F4010E942602CF9112
S11304A008952FEF83EF91E0215080409040E1F7D1
S11304B000C0000082E00E94F4010E94260282E053
S11304C00E94F4010E9426028CE00E94F4010E9422
S11304D026028CE00E94370281E00E9437020895D0
S11304E0CF93C82F41E061E081E00E94B20040E078
S11304F062E081E00E94B2008C2F82958F700E948E
S1130500F4010E9426028C2F0E94F4010E9426020C
S1130510CF91089561E080E00E94550141E061E0DF
S113052081E00E94410041E062E081E00E944100DC
S113053041E063E081E00E9441000E9451020E9478
S11305407C010E94A9018823E1F30E947002F9CF83
S1070550F894FFCF49
S11305543132334134353642373839432A3023442F
S10B056404050607000102036F
S9030000FC
