S01200004C43445F4B45595041442E7372656322
S11300000C942A000C943F000C943F000C943F0085
S11300100C943F000C943F000C943F000C943F0060
S11300200C943F000C943F000C943F000C943F0050
S11300300C943F000C943F000C943F000C943F0040
S11300400C943F000C943F000C943F000C943F0030
S11300500C943F0011241FBECFE5D8E0DEBFCDBF16
S113006010E0A0E6B0E0EEE2F6E002C005900D92EA
S1130070A637B107D9F70E94EB020C9415030C9430
S11300800000683008F06DC04130A1F5813089F07E
S113009028F08230C9F0833011F108952AB381E049
S11300A090E002C0880F991F6A95E2F7822B8ABB01
S11300B0089527B381E090E002C0880F991F6A95E4
S11300C0E2F7822B87BB089524B381E090E002C05D
S11300D0880F991F6A95E2F7822B84BB089521B398
S11300E081E090E002C0880F991F6A95E2F7822BA5
S11300F081BB0895813091F028F08230D9F08330AB
S113010029F108952AB381E090E002C0880F991F75
S11301106A95E2F7809582238ABB089527B381E02C
S113012090E002C0880F991F6A95E2F780958223B8
S113013087BB089524B381E090E002C0880F991F23
S11301406A95E2F78095822384BB089521B381E008
S113015090E002C0880F991F6A95E2F78095822388
S113016081BB0895683008F06DC04130A1F581303D
S113017089F028F08230C9F0833011F108952BB34F
S113018081E090E002C0880F991F6A95E2F7822B04
S11301908BBB089528B381E090E002C0880F991FBB
S11301A06A95E2F7822B88BB089525B381E090E03D
S11301B002C0880F991F6A95E2F7822B85BB0895C8
S11301C022B381E090E002C0880F991F6A95E2F79C
S11301D0822B82BB0895813091F028F08230D9F0CF
S11301E0833029F108952BB381E090E002C0880F99
S11301F0991F6A95E2F7809582238BBB089528B3F3
S113020081E090E002C0880F991F6A95E2F780951B
S1130210822388BB089525B381E090E002C0880F53
S1130220991F6A95E2F78095822385BB089522B3CE
S113023081E090E002C0880F991F6A95E2F78095EB
S1130240822382BB0895683060F5813079F028F00C
S11302508230A9F08330E1F026C089B390E002C077
S1130260959587956A95E2F78170089586B390E035
S113027002C0959587956A95E2F78170089583B3D6
S113028090E002C0959587956A95E2F7817008958C
S113029080B390E002C0959587956A95E2F78170E6
S11302A0089580E0089580E00895613099F48130E4
S11302B049F028F0823049F0833051F00BC09FEFB1
S11302C09ABB08C09FEF97BB05C09FEF94BB02C0C9
S11302D09FEF91BB61110FC0813041F028F0823053
S11302E039F0833039F008951ABA089517BA089589
S11302F014BA089511BA08950F931F93CF93DF93FF
S1130300CDB7DEB728970FB6F894DEBF0FBECDBFCA
S1130310198281E08A8382E08B8383E08C8384E08A
S11303208D8385E08E8386E08F8387E0888710E065
S113033012C0E1E0F0E0EC0FFD1FE10FF11D0081C0
S113034040E0602F82E00E94410041E0602F82E0A3
S11303500E94B2001F5F143060F310E012C0E5E0A9
S1130360F0E0EC0FFD1FE10FF11D008141E0602F73
S113037082E00E94410041E0602F82E00E94B200CE
S11303801F5F143060F328960FB6F894DEBF0FBEDB
S1130390CDBFDF91CF911F910F9108959F92AF929E
S11303A0BF92CF92DF92EF92FF920F931F93CF935E
S11303B0DF93CDB7DEB728970FB6F894DEBF0FBE34
S11303C0CDBF198281E08A8382E08B8383E08C83B2
S11303D084E08D8385E08E8386E08F8387E0888741
S11303E0B12C3AC0CB2CD12CE5E0F0E0EC0FFD1F92
S11303F0EC0DFD1DA08040E06A2D82E00E94B20059
S113040010E022C0E12EF12CE1E0F0E0EC0FFD1F42
S1130410EE0DFF1D0081602F82E00E9423018111F7
S113042012C0602F82E00E9423018823D1F3C70108
S1130430880F991F880F991F805A9F4FFC01EC0D5C
S1130440FD1D908003C01F5F1430E0F241E06A2D6F
S113045082E00E94B200B39483E08B1518F6892DD4
S113046028960FB6F894DEBF0FBECDBFDF91CF91B3
S11304701F910F91FF90EF90DF90CF90BF90AF90BE
S11304809F9008950F931F93CF93DF9300D000D0D4
S1130490CDB7DEB7082F84E0898385E08A8386E0C0
S11304A08B8387E08C8310E014C0402F50E0012E32
S11304B002C0559547950A94E2F74170E1E0F0E0F7
S11304C0EC0FFD1FE10FF11D608180E00E94B2007E
S11304D01F5F143050F30F900F900F900F90DF9127
S11304E0CF911F910F91089541E063E081E00E9454
S11304F0B2008FE39FE10197F1F700C0000040E0F4
S113050063E081E00E94B2000895CF93C82F40E0D9
S113051061E081E00E94B20040E062E081E00E947C
S1130520B2008C2F82958F700E9442020E94740246
S11305308C2F0E9442020E947402CF9108952FEFE3
S113054083EF91E0215080409040E1F700C000002B
S113055082E00E9442020E94740282E00E944202EF
S11305600E9474028CE00E9442020E9474028CE099
S11305700E94850281E00E9485020895CF93C82FCE
S113058041E061E081E00E94B20040E062E081E08D
S11305900E94B2008C2F82958F700E9442020E94AA
S11305A074028C2F0E9442020E947402CF9108951B
S11305B00F931F93CF938C01C0E003C00E94BE022F
S11305C0CF5FF801EC0FF11D80818111F7CFCF913E
S11305D01F910F9108956FE080E00E94550141E062
S11305E061E081E00E94410041E062E081E00E941C
S11305F0410041E063E081E00E9441000E949F02CB
S11306000E947C0180E790E00E94D8020E94CE0103
S1130610C82F8823D9F381E00E94850280E80E94D4
S111062085028C2F0E94BE02F1CFF894FFCF0A
S113062E3132334134353642373839432A30234454
S109063E4E4F4E45000082
S9030000FC
