S0110000467265655F52746F732E737265638A
S11300000C942A000C9447000C9447000C9447006D
S11300100C9447000C9447000C9447000C940B0379
S11300200C9447000C9447000C9447000C94470030
S11300300C9447000C9447000C9447000C94470020
S11300400C9447000C9447000C9447000C94470010
S11300500C94470011241FBECFE5D8E0DEBFCDBF0E
S113006010E0A0E6B0E0E4E5FEE002C005900D92E9
S1130070A637B107D9F724E0A6E7B0E001C01D9286
S1130080AA3FB207E1F70E94ED060C9428070C94EE
S11300900000683008F06DC04130A1F5813089F06E
S11300A028F08230C9F0833011F108952AB381E039
S11300B090E002C0880F991F6A95E2F7822B8ABBF1
S11300C0089527B381E090E002C0880F991F6A95D4
S11300D0E2F7822B87BB089524B381E090E002C04D
S11300E0880F991F6A95E2F7822B84BB089521B388
S11300F081E090E002C0880F991F6A95E2F7822B95
S113010081BB0895813091F028F08230D9F083309A
S113011029F108952AB381E090E002C0880F991F65
S11301206A95E2F7809582238ABB089527B381E01C
S113013090E002C0880F991F6A95E2F780958223A8
S113014087BB089524B381E090E002C0880F991F13
S11301506A95E2F78095822384BB089521B381E0F8
S113016090E002C0880F991F6A95E2F78095822378
S113017081BB0895EBE7F0E080E890E09183808311
S113018013821282E7E7F0E087EE93E093838283A1
S113019011821082AFE7B0E014969C938E9313976C
S11301A01296FC93EE93119708950F931F93CF9398
S11301B0DF93EC010E94290580917600811105C02E
S11301C00E94BA0081E080937600209709F024967B
S11301D0CE010197863E934008F056C0E0917B0023
S11301E0F0917C00ABE7B0E002C0DF01FC0182814A
S11301F093818C179D0720F4808191810097A9F742
S113020080E0E737F80709F442C00D911C9111977B
S11302100C5F1F4F808191818D939C938281938188
S11302208C1B9D0B8930910510F1AF014C0F5D1FA4
S1130230DA0113969C938E931297D383C2831296FA
S11302402D913C9113976BE770E001C0BD01EB0168
S1130250A881B98112968D919C9113978217930767
S1130260A8F3EA01B983A883DB014D935C9322814F
S113027033818091600090916100821B930B909375
S113028061008093600005C000E010E002C000E05F
S113029010E00E94B905C801DF91CF911F910F9121
S11302A008950F931F93CF93DF93009741F1EC01CF
S11302B08C01045011090E942905F80142815381DF
S11302C0ABE7B0E001C0DF01ED91FC911197228111
S11302D0338124173507B8F32497F983E8830D9302
S11302E01C938A819B812091600030916100820F70
S11302F0931F90936100809360000E94B905DF9181
S1130300CF911F910F910895FC01039692838183ED
S11303102FEF3FEF348323839683858390878783EE
S113032010820895FC01118610860895CF93DF93FF
S11303309C01FB01DC011196CD91DC911297D383D2
S1130340C2838C819D81958384838C819D81DC0112
S113035013967C936E9312977D836C8331872087E9
S1130360F90180818F5F8083DF91CF910895CF93CE
S1130370DF93EB01488159814F3F2FEF520721F45E
S1130380FC01A781B0850DC0DC01139601C0DF011B
S11303901296ED91FC9113972081318142175307F6
S11303A0B0F71296ED91FC911397FB83EA83D58302
S11303B0C483BD83AC831396DC93CE931297998741
S11303C08887FC0120812F5F2083DF91CF910895DE
S11303D0CF93DF93FC01A085B185C281D381848151
S11303E095819D838C83C481D581828193819B83F4
S11303F08A8311968D919C911297E817F90731F42D
S11304008481958112969C938E9311971186108600
S11304108C9181508C93DF91CF9108951BBC89EF0F
S11304208ABD8BE08EBD89B7806189BF089531E1B3
S1130430FC013083319722E220833197A3E3A08328
S1130440319760833197708331971082319760E8D8
S1130450608331971082319762E06083319763E063
S11304606083319764E06083319765E060833197FE
S113047066E06083319767E06083319768E060836A
S1130480319769E06083319760E16083319730830D
S1130490319732E13083319733E13083319734E15E
S11304A03083319735E13083319736E130833197AA
S11304B037E13083319738E13083319739E1308344
S11304C0319730E23083319731E2308331972083A2
S11304D0319723E2208331974083319750833197BA
S11304E026E22083319727E22083319728E2208374
S11304F0319729E22083319720E32083319721E348
S11305002083869708950E940E02A091F804B0916A
S1130510F904CD91CDBFDD91DEBFFF91EF91DF9165
S1130520CF91BF91AF919F918F917F916F915F9187
S11305304F913F912F911F910F91FF90EF90DF907A
S1130540CF90BF90AF909F908F907F906F905F906F
S11305504F903F902F901F900F900FBE0F900895D3
S113056081E008950F920FB6F8940F921F92112410
S11305702F923F924F925F926F927F928F929F92AF
S1130580AF92BF92CF92DF92EF92FF920F931F939D
S11305902F933F934F935F936F937F938F939F9387
S11305A0AF93BF93CF93DF93EF93FF93A091F8049E
S11305B0B091F9040DB60D920EB60D920E946C0620
S11305C0A091F804B091F904CD91CDBFDD91DEBFC7
S11305D0FF91EF91DF91CF91BF91AF919F918F9157
S11305E07F916F915F914F913F912F911F910F9147
S11305F0FF90EF90DF90CF90BF90AF909F908F903F
S11306007F906F905F904F903F902F901F900F902E
S11306100FBE0F9008951F920F920FB60F921124E0
S11306202F933F934F935F936F937F938F939F93F6
S1130630AF93BF93EF93FF930E942F05FF91EF9128
S1130640BF91AF919F918F917F916F915F914F91E6
S11306503F912F910F900FBE0F901F901895E0912E
S11306609304F09194048081811107C08FEF9FEF70
S113067090936B0480936A040895E0919304F0913D
S113068094040580F681E02D0680F781E02D8281B7
S1130690938190936B0480936A040895CF93DF93BE
S11306A0EC018F89988D0E945101CE010E94510165
S11306B0DF91CF9108956F927F928F929F92AF9224
S11306C0BF92CF92DF92EF920F931F93CF93DF935A
S11306D0CDB7DEB74C01F5018789908D21503109E2
S11306E03C01620E731E20E00FC0822F90E0FB01DC
S11306F0E80FF91F3081D501A80FB91F59963C9313
S11307008081882319F02F5F283078F3F50110A237
S1130710F8E0FE1518F46894EE24E3F8F501E68A8F
S1130720E1A212A2C50102960E949201C5010C9693
S11307300E949201F501B186A08689E090E08E19AD
S1130740910995878487B38AA28A13A214A215A259
S113075016A217A2A801B401C3010E941702F50151
S113076091838083C114D10419F0F601B182A0826F
S1130770DF91CF911F910F91EF90DF90CF90BF90B9
S1130780AF909F908F907F906F900895CF93C0E02B
S113079010C08C2F90E09C01220F331F220F331FB7
S11307A0220F331F820F931F89559B4F0E94840190
S11307B0CF5FC93070F38EE994E00E94840185E92B
S11307C094E00E94840188E894E00E9484018FE709
S11307D094E00E94840185E794E00E9484018EE9FC
S11307E094E0909394048093930485E994E0909327
S11307F0920480939104CF910895CF93DF93EC01F9
S11308000FB6F8940F92809174048F5F80937404F0
S11308108091F8049091F904892B59F4D093F90448
S1130820C093F80480917404813099F40E94C60343
S113083010C08091700481110CC0E091F804F09113
S1130840F90496898E89891720F0D093F904C0930E
S1130850F80480916C048F5F80936C042E898091DE
S11308607104821710F42093710430E0BE016E5FAE
S11308707F4FC901880F991F880F991F880F991FEF
S1130880820F931F89559B4F0E9496010F900FBEB4
S113089080917004882321F08091F8049091F904E8
S11308A0DF91CF910895FF920F931F93CF93DF931E
S11308B0EC01F62E00917204109173048091F804F7
S11308C09091F90402960E94E801CF3F8FEFD80778
S11308D069F4FF2059F06091F8047091F9046E5F97
S11308E07F4F85E794E00E9496012FC0C00FD11F6F
S11308F0E091F804F091F904D383C283C017D107BF
S113090068F46091F8047091F904809191049091D5
S113091092046E5F7F4F0E94B70117C06091F80484
S11309207091F90480919304909194046E5F7F4FC9
S11309300E94B70180916A0490916B04C817D9078B
S113094020F4D0936B04C0936A04DF91CF911F917C
S11309500F91FF9008952F923F924F925F926F9262
S11309607F928F929F92AF92BF92CF92DF92EF923B
S1130970FF920F931F93CF93DF933C011B015A0106
S11309802901CA010E94D5006C01892B71F088E20B
S113099090E00E94D500EC01892B19F0D88ECF8A03
S11309A006C0C6010E94510102C0C0E0D0E02097F9
S11309B091F0950140E050E0812C912C5E0167019B
S11309C0E02E8201B101C3010E945B03CE010E94AB
S11309D0FD0381E001C08FEFDF91CF911F910F9153
S11309E0FF90EF90DF90CF90BF90AF909F908F904B
S11309F07F906F905F904F903F902F900895EF926B
S1130A00FF920F930F2EF8E6EF2EF4E0FF2EF02D59
S1130A1000E020E030E040E550E062E670E087E688
S1130A2096E00E94AB04813081F4F8948FEF9FEF3D
S1130A3090936B0480936A0481E080937004109215
S1130A407304109272040E9483020F91FF90EF903E
S1130A500895809167048F5F809367040895EF92EF
S1130A60FF920F931F93CF93DF93809167048111BB
S1130A7073C0E0907204F09073048FEFE81AF80AE0
S1130A80F0927304E0927204E114F104B9F48091D9
S1130A9093049091940420919104309192043093A2
S1130AA094042093930490939204809391048091EE
S1130AB06D048F5F80936D040E942F0380916A04FC
S1130AC090916B04E816F90608F44BC0E091930486
S1130AD0F09194048081811107C08FEF9FEF909370
S1130AE06B0480936A043DC0E0919304F0919404F4
S1130AF00580F681E02DC681D7818A819B81E81625
S1130B00F90628F490936B0480936A042AC08E013A
S1130B100E5F1F4FC8010E94E8018C899D89892BB3
S1130B2021F0CE010C960E94E8018E899091710407
S1130B30981710F48093710490E09C01220F331FE6
S1130B40220F331F220F331F820F931FB8018955C1
S1130B509B4F0E949601BACF80916F048F5F809360
S1130B606F0480E0DF91CF911F910F91FF90EF9080
S1130B7008950F931F93CF93DF930FB6F8940F92BA
S1130B808091670481508093670480916704811188
S1130B9052C080917404811133C04DC0E0918D0422
S1130BA0F0918E04C681D781CE010C960E94E80193
S1130BB08E010E5F1F4FC8010E94E8018E8990913B
S1130BC07104981710F48093710490E09C01220F33
S1130BD0331F220F331F220F331F820F931FB801BD
S1130BE089559B4F0E9496019E89E091F804F091EB
S1130BF0F9048689981730F081E080936E0402C06E
S1130C00C0E0D0E0809188048111C8CFCD2B11F0D1
S1130C100E942F03C0916F04CC2359F00E942F052A
S1130C20882319F081E080936E04C150B9F71092C3
S1130C306F0480916E040F900FBE80E0DF91CF911E
S1130C401F910F910895CF93DF93EC01892B49F005
S1130C500E94290560E0CE010E9453040E94B90558
S1130C6001C080E0811102C00E94B202DF91CF91E5
S1130C700895CF93DF9324C00E942905C0917F0477
S1130C800E94B905CC23E1F00FB6F8940F92E091DD
S1130C908404F0918504C681D781CE0102960E9416
S1130CA0E8018091740481508093740480917E04DF
S1130CB0815080937E040F900FBECE010E944E039C
S1130CC080917E048111D8CFDF91CF9108950E9445
S1130CD039060E94B202FBCF80916704882321F079
S1130CE081E080936E04089510926E042091710443
S1130CF001C02150822F90E0FC01EE0FFF1FEE0F88
S1130D00FF1FEE0FFF1FE80FF91FE955FB4F30815E
S1130D10332379F3AC01440F551F440F551F440F7F
S1130D20551F480F591FDF010180F281E02D028019
S1130D30F381E02D1296FC93EE93119746555B4F89
S1130D40E417F50729F442815381FD01528341835D
S1130D50FC01EE0FFF1FEE0FFF1FEE0FFF1F8E0FA4
S1130D609F1FFC01E955FB4F0180F281E02D868134
S1130D7097819093F9048093F80420937104089563
S1130D808BB381608BBB84EF91E00E9423068BB30D
S1130D908E7F8BBB84EF91E00E942306F1CF8BB34F
S1130DA082608BBB88EE93E00E9423068BB38D7F19
S1130DB08BBB88EE93E00E942306F1CF8BB3846053
S1130DC08BBB8CED95E00E9423068BB38B7F8BBB92
S1130DD08CED95E00E942306F1CFEF92FF920F93E2
S1130DE08BB341E060E00E9449008BB341E061E0D5
S1130DF00E9449008BB341E062E00E944900E12C6B
S1130E00F12C00E020E030E044E650E067E670E0DA
S1130E1080EC96E00E94AB0420E030E044E650E031
S1130E206CE670E08FEC96E00E94AB0420E030E0CA
S1130E3044E650E061E770E08EED96E00E94AB047A
S1130E400E94FF0480E090E00F91FF90EF900895DE
S1070E50F894FFCF40
S1130E54E70349444C45004C454431004C45443275
S1090E64004C454433007C
S9030000FC
