:100000000C942A000C9434000C9434000C943400AA
:100010000C9434000C9434000C9434000C94340090
:100020000C9434000C9434000C9434000C94340080
:100030000C9434000C9434000C9434000C94340070
:100040000C9434000C9434000C9434000C94340060
:100050000C94340011241FBECFE5D8E0DEBFCDBF25
:100060000E94D9000C9430010C940000683008F014
:100070006DC04130A1F5813089F028F08230C9F09F
:10008000833011F108952AB381E090E002C0880F17
:10009000991F6A95E2F7822B8ABB089527B381E006
:1000A00090E002C0880F991F6A95E2F7822B87BB08
:1000B000089524B381E090E002C0880F991F6A95EB
:1000C000E2F7822B84BB089521B381E090E002C067
:1000D000880F991F6A95E2F7822B81BB08958130C2
:1000E00091F028F08230D9F0833029F108952AB3B5
:1000F00081E090E002C0880F991F6A95E2F7809531
:1001000082238ABB089527B381E090E002C0880F64
:10011000991F6A95E2F78095822387BB089524B3DF
:1001200081E090E002C0880F991F6A95E2F7809500
:10013000822384BB089521B381E090E002C0880F40
:10014000991F6A95E2F78095822381BB08956830F4
:1001500060F5813079F028F08230A9F08330E1F049
:1001600026C089B390E002C0959587956A95E2F71D
:100170008170089586B390E002C0959587956A9541
:10018000E2F78170089583B390E002C0959587955A
:100190006A95E2F78170089580B390E002C095956A
:1001A00087956A95E2F78170089580E0089580E070
:1001B000089540E060E081E00E94360040E066E0A3
:1001C00083E00E94360040E063E083E00E94360056
:1001D0000E941D0141E061E083E00E94360060E082
:1001E00081E00E94A700813049F480E30E942C0145
:1001F00060E081E00E94A7008130D1F366E083E0F7
:100200000E94A700813049F481E30E942C0166E03E
:1002100083E00E94A7008130D1F362E083E00E9476
:10022000A7008130E1F682E30E942C0162E083E0C6
:100230000E94A7008130D1F3D2CF87E689B98AB175
:1002400088608AB98AB180618AB98AB180688AB9BE
:100250008AB180648AB908958CB95E9BFECF0895F7
:04026000F894FFCF40
:00000001FF
