:100000000C942A000C943C000C943C000C943C0092
:100010000C943C000C943C000C943C000C943C0070
:100020000C943C000C943C000C945E010C94370141
:100030000C943C000C943C000C943C000C943C0050
:100040000C943C000C943C000C943C000C943C0040
:100050000C943C0011241FBECFE5D8E0DEBFCDBF1D
:1000600020E0A0E6B0E001C01D92A237B207E1F7A0
:100070000E9402010C94C0010C940000683008F04A
:100080006DC04130A1F5813089F028F08230C9F08F
:10009000833011F108952AB381E090E002C0880F07
:1000A000991F6A95E2F7822B8ABB089527B381E0F6
:1000B00090E002C0880F991F6A95E2F7822B87BBF8
:1000C000089524B381E090E002C0880F991F6A95DB
:1000D000E2F7822B84BB089521B381E090E002C057
:1000E000880F991F6A95E2F7822B81BB08958130B2
:1000F00091F028F08230D9F0833029F108952AB3A5
:1001000081E090E002C0880F991F6A95E2F7809520
:1001100082238ABB089527B381E090E002C0880F54
:10012000991F6A95E2F78095822387BB089524B3CF
:1001300081E090E002C0880F991F6A95E2F78095F0
:10014000822384BB089521B381E090E002C0880F30
:10015000991F6A95E2F78095822381BB0895CF931A
:10016000809160009091610001969093610080936E
:100170006000C0E01FC02C2F30E0F901EE0FFF1F20
:10018000EE0FFF1FEE59FF4F628173818091600077
:10019000909161000E949801892B59F4220F331F1E
:1001A000220F331FF901EE59FF4F0190F081E02D2E
:1001B0000995CF5FC330F8F2CF9108950E94850171
:1001C0006FEA70E080E00E9429010895E82FF0E0D6
:1001D000EE0FFF1FEE0FFF1FEE59FF4F7383628379
:1001E0005183408308959BB381E089278BBB089599
:1001F0009BB382E089278BBB08959BB384E089275A
:100200008BBB089541E060E080E00E943E0041E049
:1002100061E080E00E943E0041E062E080E00E94F8
:100220003E0043EF50E064E670E080E00E94E600AC
:1002300048EF50E068EC70E081E00E94E6004DEF8E
:1002400050E06CE271E082E00E94E6000E94DE0075
:10025000FFCF813029F4709371006093700008958E
:10026000811104C070936F0060936E0008951F9217
:100270000F920FB60F9211242F933F934F935F93DA
:100280006F937F938F939F93AF93BF93EF93FF935E
:10029000E0917000F09171000995FF91EF91BF918D
:1002A000AF919F918F917F916F915F914F913F910E
:1002B0002F910F900FBE0F901F9018951F920F92C5
:1002C0000FB60F9211242F933F934F935F936F9329
:1002D0007F938F939F93AF93BF93EF93FF93E0919F
:1002E0006E00F0916F000995FF91EF91BF91AF9172
:1002F0009F918F917F916F915F914F913F912F913E
:100300000F900FBE0F901F90189583B7886083BF22
:1003100083B78F7B83BF83B7887F83BF83B78360B7
:1003200083BF8AEF8CBF789489B7826089BF0895B4
:1003300097FB072E16F4009407D077FD09D00E9492
:10034000AC0107FC05D03EF4909581959F4F089530
:10035000709561957F4F0895AA1BBB1B51E107C0A3
:10036000AA1FBB1FA617B70710F0A61BB70B881F45
:10037000991F5A95A9F780959095BC01CD010895D4
:04038000F894FFCF1F
:00000001FF
