:100000000C942A000C9447000C9447000C94470071
:100010000C9447000C9447000C9447000C94470044
:100020000C9447000C9447000C9447000C94470034
:100030000C9447000C9447000C9447000C94470024
:100040000C9447000C9447000C9447000C94470014
:100050000C94470011241FBECFE5D8E0DEBFCDBF12
:1000600010E0A0E6B0E0E6EAF8E002C005900D92EC
:10007000A839B107D9F720E0A8E9B0E001C01D9286
:10008000A839B207E1F70E948B030C9451040C9439
:100090000000683008F06DC04130A1F5813089F072
:1000A00028F08230C9F0833011F108952AB381E03D
:1000B00090E002C0880F991F6A95E2F7822B8ABBF5
:1000C000089527B381E090E002C0880F991F6A95D8
:1000D000E2F7822B87BB089524B381E090E002C051
:1000E000880F991F6A95E2F7822B84BB089521B38C
:1000F00081E090E002C0880F991F6A95E2F7822B99
:1001000081BB0895813091F028F08230D9F083309E
:1001100029F108952AB381E090E002C0880F991F69
:100120006A95E2F7809582238ABB089527B381E020
:1001300090E002C0880F991F6A95E2F780958223AC
:1001400087BB089524B381E090E002C0880F991F17
:100150006A95E2F78095822384BB089521B381E0FC
:1001600090E002C0880F991F6A95E2F7809582237C
:1001700081BB0895683008F06DC04130A1F5813031
:1001800089F028F08230C9F0833011F108952BB343
:1001900081E090E002C0880F991F6A95E2F7822BF8
:1001A0008BBB089528B381E090E002C0880F991FAF
:1001B0006A95E2F7822B88BB089525B381E090E031
:1001C00002C0880F991F6A95E2F7822B85BB0895BC
:1001D00022B381E090E002C0880F991F6A95E2F790
:1001E000822B82BB0895813091F028F08230D9F0C3
:1001F000833029F108952BB381E090E002C0880F8D
:10020000991F6A95E2F7809582238BBB089528B3E6
:1002100081E090E002C0880F991F6A95E2F780950F
:10022000822388BB089525B381E090E002C0880F47
:10023000991F6A95E2F78095822385BB089522B3C2
:1002400081E090E002C0880F991F6A95E2F78095DF
:10025000822382BB0895683060F5813079F028F000
:100260008230A9F08330E1F026C089B390E002C06B
:10027000959587956A95E2F78170089586B390E029
:1002800002C0959587956A95E2F78170089583B3CA
:1002900090E002C0959587956A95E2F78170089580
:1002A00080B390E002C0959587956A95E2F78170DA
:1002B000089580E0089580E00895613099F48130D8
:1002C00049F028F0823049F0833051F00BC09FEFA5
:1002D0009ABB08C09FEF97BB05C09FEF94BB02C0BD
:1002E0009FEF91BB61110FC0813041F028F0823047
:1002F00039F0833039F008951ABA089517BA08957D
:1003000014BA089511BA0895E199FECF7FBB6EBB70
:100310008DBB8CB384608CBB8CB382608CBB089526
:10032000E199FECF9FBB8EBB8CB381608CBB0895DF
:100330000F931F93CF93DF93CDB7DEB728970FB6F8
:10034000F894DEBF0FBECDBF198281E08A8382E0C0
:100350008B8383E08C8384E08D8385E08E8386E0CD
:100360008F8387E0888710E012C0E1E0F0E0EC0FB7
:10037000FD1FE10FF11D008140E0602F81E00E9430
:10038000490041E0602F81E00E94BA001F5F1430F5
:1003900060F310E012C0E5E0F0E0EC0FFD1FE10FAC
:1003A000F11D008141E0602F81E00E94490041E0A1
:1003B000602F81E00E94BA001F5F143060F328961E
:1003C0000FB6F894DEBF0FBECDBFDF91CF911F9166
:1003D0000F910895AF92BF92CF92DF92EF92FF926A
:1003E0000F931F93CF93DF93CDB7DEB728970FB648
:1003F000F894DEBF0FBECDBF198281E08A8382E010
:100400008B8383E08C8384E08D8385E08E8386E01C
:100410008F8387E08887B12C3AC0CB2CD12CE5E0C4
:10042000F0E0EC0FFD1FEC0DFD1DA08040E06A2DFB
:1004300081E00E94BA0010E022C0E12EF12CE1E040
:10044000F0E0EC0FFD1FEE0DFF1D0081602F81E03D
:100450000E942B01811112C0602F81E00E942B01AC
:100460008823D1F3C701880F991F880F991F805ADD
:100470009F4FFC01EC0DFD1D80810DC01F5F1430EE
:10048000E0F241E06A2D81E00E94BA00B39483E07B
:100490008B1518F68FEF28960FB6F894DEBF0FBEB7
:1004A000CDBFDF91CF911F910F91FF90EF90DF9023
:1004B000CF90BF90AF9008950F931F93CF93DF938A
:1004C00000D000D0CDB7DEB7082F84E0898385E067
:1004D0008A8386E08B8387E08C8310E014C0402FF2
:1004E00050E0012E02C0559547950A94E2F74170FD
:1004F000E1E0F0E0EC0FFD1FE10FF11D608180E015
:100500000E94BA001F5F143050F30F900F900F90AD
:100510000F90DF91CF911F910F91089541E063E01B
:1005200080E00E94BA008FE39FE10197F1F700C0DD
:10053000000040E063E080E00E94BA000895CF939D
:10054000C82F40E061E080E00E94BA0040E062E035
:1005500080E00E94BA008C2F82958F700E945C020E
:100560000E948E028C2F0E945C020E948E02CF910C
:1005700008952FEF83EF91E0215080409040E1F704
:1005800000C0000082E00E945C020E948E0282E0B5
:100590000E945C020E948E028CE00E945C020E941B
:1005A0008E028CE00E949F0281E00E949F020895CB
:1005B000CF93C82F41E061E080E00E94BA0040E0A4
:1005C00062E080E00E94BA008C2F82958F700E94BA
:1005D0005C020E948E028C2F0E945C020E948E029E
:1005E000CF9108950F931F93CF938C01C0E003C068
:1005F0000E94D802CF5FF801EC0FF11D80818111BC
:10060000F7CFCF911F910F9108956F927F928F92A4
:100610009F92AF92BF92CF92DF92EF92FF920F9391
:100620001F93CF93DF93CDB7DEB74C01CDB6DEB6C7
:10063000009721F480E30E94D8024DC0992334F43E
:100640009194819491088DE20E94D802C40110E037
:1006500006C06AE070E00E942904CB011F5F00978A
:10066000C1F7ADB6BEB6E12FF0E08DB79EB78E1BD9
:100670009F0B0FB6F8949EBF0FBE8DBF01963C0135
:100680007C0120E012C0C4016AE070E00E942904ED
:100690004B01422F50E04F5F5F4FDF01A41BB50BB2
:1006A000AE0DBF1D805D8C932F5F211760F3E60DAB
:1006B000F71D80E3808300E007C0F701E00FF11D24
:1006C00080810E94D8020F5F0117B8F30FB6F8942B
:1006D000BEBE0FBEADBE0FB6F894DEBE0FBECDBE21
:1006E000DF91CF911F910F91FF90EF90DF90CF900E
:1006F000BF90AF909F908F907F906F9008958823C8
:1007000029F0813011F4605C01C060E0862F8068C0
:100710000E949F020895CF93DF9300D000D0CDB701
:10072000DEB761E080E00E945D0160E081E00E9450
:100730005D0141E067E083E00E94490041E066E03E
:1007400083E00E9449000E9498010E94B90210E0D3
:1007500006C0612F70E0812F0E9484011F5F14305A
:10076000C0F3E12C10E00CC00E94EA018F3FE1F3DE
:10077000E1E0F0E0EC0FFD1FE10FF11D80831F5F52
:10078000143090F3F12CD12C59C00F2D10E0C8017A
:100790000E949001E1E0F0E0EC0FFD1FE00FF11F7F
:1007A0009081891709F448C022E0E21226C080E750
:1007B00090E00E94F2028FEF91EE24E08150904091
:1007C0002040E1F700C0000041E067E083E00E94C4
:1007D000BA008FEF91EE24E0815090402040E1F785
:1007E00000C0000040E067E083E00E94BA0041E002
:1007F00067E083E00E94BA00DECFE39481E00E94CC
:100800009F028AE790E00E94F20260E081E00E948D
:100810007F0389E890E00E94F20280E20E94D80201
:100820008E2D90E00E94050380E20E94D8028FE89E
:1008300090E00E94F20201C0D394F39483E08F15FC
:1008400008F0A3CFD8128ECF84E990E00E94F20284
:1008500089CF97FB072E16F4009407D077FD09D0B7
:100860000E943D0407FC05D03EF4909581959F4F72
:100870000895709561957F4F0895AA1BBB1B51E1A8
:1008800007C0AA1FBB1FA617B70710F0A61BB70B00
:10089000881F991F5A95A9F780959095BC01CD01A5
:0608A0000895F894FFCF5B
:1008A6003132334134353642373839432A302344DE
:1008B6005761726E696E6720210057726F6E6720EE
:1008C60050617373776F726400547269616C006F64
:0808D600662033004F4B0000C7
:00000001FF
