S0130000454550524F4D5F544553542E73726563AA
S11300000C942A000C9434000C9434000C943400A6
S11300100C9434000C9434000C9434000C9434008C
S11300200C9434000C9434000C9434000C9434007C
S11300300C9434000C9434000C9434000C9434006C
S11300400C9434000C9434000C9434000C9434005C
S11300500C94340011241FBECFE5D8E0DEBFCDBF21
S11300600E9479010C948F010C940000683008F010
S11300706DC04130A1F5813089F028F08230C9F09B
S1130080833011F108952BB381E090E002C0880F12
S1130090991F6A95E2F7822B8BBB089528B381E000
S11300A090E002C0880F991F6A95E2F7822B88BB03
S11300B0089525B381E090E002C0880F991F6A95E6
S11300C0E2F7822B85BB089522B381E090E002C061
S11300D0880F991F6A95E2F7822B82BB08958130BD
S11300E091F028F08230D9F0833029F108952BB3B0
S11300F081E090E002C0880F991F6A95E2F780952D
S113010082238BBB089528B381E090E002C0880F5E
S1130110991F6A95E2F78095822388BB089525B3D9
S113012081E090E002C0880F991F6A95E2F78095FC
S1130130822385BB089522B381E090E002C0880F3A
S1130140991F6A95E2F78095822382BB08956130F6
S113015099F4813049F028F0823049F0833051F02D
S11301600BC09FEF9ABB08C09FEF97BB05C09FEFE2
S113017094BB02C09FEF91BB61110FC0813041F06D
S113018028F0823039F0833039F008951ABA08958E
S113019017BA089514BA089511BA0895E199FECFD3
S11301A07FBB6EBB8DBB8CB384608CBB8CB3826015
S11301B08CBB0895E199FECF9FBB8EBB8CB381604D
S11301C08CBB8DB308950F931F93CF93DF9300D00F
S11301D000D0CDB7DEB7082F84E0898385E08A8319
S11301E086E08B8387E08C8310E014C0402F50E0BE
S11301F0012E02C0559547950A94E2F74170E1E05B
S1130200F0E0EC0FFD1FE10FF11D608180E00E9422
S113021036001F5F143050F30F900F900F900F9023
S1130220DF91CF911F910F91089541E063E081E048
S11302300E9436008FE39FE10197F1F700C00000B0
S113024040E063E081E00E9436000895CF93C82F18
S113025040E061E081E00E94360040E062E081E03D
S11302600E9436008C2F82958F700E94E3000E94BA
S113027015018C2F0E94E3000E941501CF9108956F
S11302802FEF83EF91E0215080409040E1F700C0D0
S1130290000082E00E94E3000E94150182E00E94B7
S11302A0E3000E9415018CE00E94E3000E94150106
S11302B08CE00E94260181E00E9426010895CF93DC
S11302C0C82F41E061E081E00E94360040E062E036
S11302D081E00E9436008C2F82958F700E94E3008B
S11302E00E9415018C2F0E94E3000E941501CF91FA
S11302F0089561E080E00E94A70061E081E00E942F
S1130300A7000E94400165E170E08DE60E94CE00E6
S113031085E190E00E94DA000E945F01FFCFF8942B
S1050320FFCF09
S9030000FC
