:100000000C942A000C9434000C9434000C943400AA
:100010000C9434000C9434000C9434000C94340090
:100020000C9434000C9434000C9434000C94340080
:100030000C9434000C9434000C9434000C94340070
:100040000C9434000C9434000C9434000C94340060
:100050000C94340011241FBECFE5D8E0DEBFCDBF25
:100060000E9473010C9485010C940000683008F024
:100070006DC04130A1F5813089F028F08230C9F09F
:10008000833011F108952AB381E090E002C0880F17
:10009000991F6A95E2F7822B8ABB089527B381E006
:1000A00090E002C0880F991F6A95E2F7822B87BB08
:1000B000089524B381E090E002C0880F991F6A95EB
:1000C000E2F7822B84BB089521B381E090E002C067
:1000D000880F991F6A95E2F7822B81BB08958130C2
:1000E00091F028F08230D9F0833029F108952AB3B5
:1000F00081E090E002C0880F991F6A95E2F7809531
:1001000082238ABB089527B381E090E002C0880F64
:10011000991F6A95E2F78095822387BB089524B3DF
:1001200081E090E002C0880F991F6A95E2F7809500
:10013000822384BB089521B381E090E002C0880F40
:10014000991F6A95E2F78095822381BB08956830F4
:1001500008F06DC04130A1F5813089F028F082307F
:10016000C9F0833011F108952BB381E090E002C013
:10017000880F991F6A95E2F7822B8BBB089528B3ED
:1001800081E090E002C0880F991F6A95E2F7822B08
:1001900088BB089525B381E090E002C0880F991FC5
:1001A0006A95E2F7822B85BB089522B381E090E047
:1001B00002C0880F991F6A95E2F7822B82BB0895CF
:1001C000813091F028F08230D9F0833029F1089500
:1001D0002BB381E090E002C0880F991F6A95E2F787
:1001E000809582238BBB089528B381E090E002C004
:1001F000880F991F6A95E2F78095822388BB08953E
:1002000025B381E090E002C0880F991F6A95E2F75C
:100210008095822385BB089522B381E090E002C0DF
:10022000880F991F6A95E2F78095822382BB089513
:10023000683060F5813079F028F08230A9F08330A1
:10024000E1F026C089B390E002C0959587956A9544
:10025000E2F78170089589B390E002C09595879583
:100260006A95E2F78170089589B390E002C0959590
:1002700087956A95E2F78170089589B390E002C08E
:10028000959587956A95E2F78170089580E00895C5
:1002900080E00895CF93DF93C82FD62F41E00E94CE
:1002A000360041E06D2F8C2F0E94A700DF91CF9187
:1002B00008951F93CF93DF93D82F162F0E94180114
:1002C000C82F813029F440E0612F8D2F0E94A700B4
:1002D000C11105C041E0612F8D2F0E94A700DF9161
:1002E000CF911F91089567E082E00E944A0167E084
:1002F00082E00E9459012FED83E994E02150804073
:0E0300009040E1F700C00000F2CFF894FFCF6C
:00000001FF
