S01000004441435F544553542E73726563AD
S11300000C942A000C9434000C9434000C943400A6
S11300100C9434000C9434000C9434000C9434008C
S11300200C9434000C9434000C9434000C9434007C
S11300300C9434000C9434000C9434000C9434006C
S11300400C9434000C9434000C9434000C9434005C
S11300500C94340011241FBECFE5D8E0DEBFCDBF21
S11300600E946D000C9488000C940000613099F497
S1130070813049F028F0823049F0833051F00BC0D0
S11300809FEF9ABB08C09FEF97BB05C09FEF94BB3F
S113009002C09FEF91BB61110FC0813041F028F085
S11300A0823039F0833039F008951ABA089517BAB6
S11300B0089514BA089511BA0895813041F028F0D2
S11300C0823039F0833039F008956BBB089568BBF2
S11300D0089565BB089562BB089561E080E00E94C5
S11300E03600C0E0D0E005C06C2F80E00E945D00C7
S11300F02196CF3FD105C4F3CFEFD0E005C06C2FDC
S113010080E00E945D0021971C161D06C4F3E9CF10
S1070110F894FFCF8D
S9030000FC
