S0160000436F756E7465725F62795F4C43442E73726563C2
S11300000C942A000C943F000C943F000C943F0085
S11300100C943F000C943F000C943F000C943F0060
S11300200C943F000C943F000C943F000C943F0050
S11300300C943F000C943F000C943F000C943F0040
S11300400C943F000C943F000C943F000C943F0030
S11300500C943F0011241FBECFE5D8E0DEBFCDBF16
S113006010E0A0E6B0E0E8EEF4E002C005900D92E6
S1130070AE36B107D9F70E9425020C9472020C9493
S11300800000683008F06DC04130A1F5813089F07E
S113009028F08230C9F0833011F108952AB381E049
S11300A090E002C0880F991F6A95E2F7822B8ABB01
S11300B0089527B381E090E002C0880F991F6A95E4
S11300C0E2F7822B87BB089524B381E090E002C05D
S11300D0880F991F6A95E2F7822B84BB089521B398
S11300E081E090E002C0880F991F6A95E2F7822BA5
S11300F081BB0895813091F028F08230D9F08330AB
S113010029F108952AB381E090E002C0880F991F75
S11301106A95E2F7809582238ABB089527B381E02C
S113012090E002C0880F991F6A95E2F780958223B8
S113013087BB089524B381E090E002C0880F991F23
S11301406A95E2F78095822384BB089521B381E008
S113015090E002C0880F991F6A95E2F78095822388
S113016081BB0895683008F06DC04130A1F581303D
S113017089F028F08230C9F0833011F108952BB34F
S113018081E090E002C0880F991F6A95E2F7822B04
S11301908BBB089528B381E090E002C0880F991FBB
S11301A06A95E2F7822B88BB089525B381E090E03D
S11301B002C0880F991F6A95E2F7822B85BB0895C8
S11301C022B381E090E002C0880F991F6A95E2F79C
S11301D0822B82BB0895813091F028F08230D9F0CF
S11301E0833029F108952BB381E090E002C0880F99
S11301F0991F6A95E2F7809582238BBB089528B3F3
S113020081E090E002C0880F991F6A95E2F780951B
S1130210822388BB089525B381E090E002C0880F53
S1130220991F6A95E2F78095822385BB089522B3CE
S113023081E090E002C0880F991F6A95E2F78095EB
S1130240822382BB0895683060F5813079F028F00C
S11302508230A9F08330E1F026C089B390E002C077
S1130260959587956A95E2F78170089586B390E035
S113027002C0959587956A95E2F78170089583B3D6
S113028090E002C0959587956A95E2F7817008958C
S113029080B390E002C0959587956A95E2F78170E6
S11302A0089580E0089580E00895613099F48130E4
S11302B049F028F0823049F0833051F00BC09FEFB1
S11302C09ABB08C09FEF97BB05C09FEF94BB02C0C9
S11302D09FEF91BB61110FC0813041F028F0823053
S11302E039F0833039F008951ABA089517BA089589
S11302F014BA089511BA08950F931F93CF93DF93FF
S113030000D000D0CDB7DEB7082F84E0898385E024
S11303108A8386E08B8387E08C8310E014C0402FAF
S113032050E0012E02C0559547950A94E2F74170BA
S1130330E1E0F0E0EC0FFD1FE10FF11D608180E0D2
S11303400E94B2001F5F143050F30F900F900F9073
S11303500F90DF91CF911F910F91089541E063E0D9
S113036081E00E94B2008FE39FE10197F1F700C0A2
S1130370000040E063E081E00E94B2000895CF9362
S1130380C82F40E061E081E00E94B20040E062E0FA
S113039081E00E94B2008C2F82958F700E947C01B4
S11303A00E94AE018C2F0E947C010E94AE01CF916D
S11303B008952FEF83EF91E0215080409040E1F7C2
S11303C000C0000082E00E947C010E94AE0182E035
S11303D00E947C010E94AE018CE00E947C010E947C
S11303E0AE018CE00E94BF0181E00E94BF0108952C
S11303F0CF93C82F41E061E081E00E94B20040E069
S113040062E081E00E94B2008C2F82958F700E947E
S11304107C010E94AE018C2F0E947C010E94AE01DF
S1130420CF9108950F931F93CF938C01C0E003C025
S11304300E94F801CF5FF801EC0FF11D808181115A
S1130440F7CFCF911F910F91089561E080E00E9452
S1130450550141E061E081E00E94410041E062E039
S113046081E00E94410041E063E081E00E9441009C
S113047040E066E083E00E9441000E94D90180E3ED
S11304800E94F801C0E066E083E00E946C028130C3
S113049099F4C33088F4D1E0DC0F66E083E00E9475
S11304A06C028130D1F380E80E94BF0181E38C0F9C
S11304B00E94F801CD2FE7CF66E083E00E946C0232
S11304C0813009F7C330F8F280E80E94BF0180E66A
S11304D090E00E941202D7CF0E942301813009F0DC
S10B04E080E00895F894FFCFB9
S11104E84D7568616D6D6164205761656C002F
S9030000FC
