:100000000C942A000C9447000C9447000C94470071
:100010000C9447000C9447000C9447000C94320356
:100020000C9447000C9447000C9447000C94470034
:100030000C9447000C9447000C9447000C94470024
:100040000C9447000C9447000C9447000C94470014
:100050000C94470011241FBECFE5D8E0DEBFCDBF12
:1000600010E0A0E6B0E0E2EFF7E102C005900D92EB
:10007000A038B107D9F725E0A0E8B0E001C01D9293
:10008000A630B207E1F70E94B30B0C94F70B0C9467
:100090000000683008F06DC04130A1F5813089F072
:1000A00028F08230C9F0833011F108952BB381E03C
:1000B00090E002C0880F991F6A95E2F7822B8BBBF4
:1000C000089528B381E090E002C0880F991F6A95D7
:1000D000E2F7822B88BB089525B381E090E002C04F
:1000E000880F991F6A95E2F7822B85BB089522B38A
:1000F00081E090E002C0880F991F6A95E2F7822B99
:1001000082BB0895813091F028F08230D9F083309D
:1001100029F108952BB381E090E002C0880F991F68
:100120006A95E2F7809582238BBB089528B381E01E
:1001300090E002C0880F991F6A95E2F780958223AC
:1001400088BB089525B381E090E002C0880F991F15
:100150006A95E2F78095822385BB089522B381E0FA
:1001600090E002C0880F991F6A95E2F7809582237C
:1001700082BB0895613099F4813049F028F08230D3
:1001800049F0833051F00BC09FEF9ABB08C09FEF3E
:1001900097BB05C09FEF94BB02C09FEF91BB61115D
:1001A0000FC0813041F028F0823039F0833039F0CF
:1001B00008951ABA089517BA089514BA089511BA8D
:1001C0000895E5E8F0E08AE890E091838083138267
:1001D0001282E1E8F0E087EE93E09383828311825C
:1001E0001082A9E8B0E014969C938E931397129610
:1001F000FC93EE93119708950F931F93CF93DF9382
:10020000EC010E94DB0780918000811105C00E94F3
:10021000E10081E080938000209709F02496CE01D0
:100220000197863E934008F056C0E0918500F0911A
:100230008600A5E8B0E002C0DF01FC018281938165
:100240008C179D0720F4808191810097A9F780E0A9
:10025000E138F80709F442C00D911C9111970C5F29
:100260001F4F808191818D939C93828193818C1B00
:100270009D0B8930910510F1AF014C0F5D1FDA0124
:1002800013969C938E931297D383C28312962D91CB
:100290003C91139765E870E001C0BD01EB01A881B6
:1002A000B98112968D919C91139782179307A8F3A9
:1002B000EA01B983A883DB014D935C9322813381EA
:1002C0008091600090916100821B930B909361007C
:1002D0008093600005C000E010E002C000E010E084
:1002E0000E946B08C801DF91CF911F910F91089573
:1002F0000F931F93CF93DF93009741F1EC018C0193
:10030000045011090E94DB07F80142815381A5E8DE
:10031000B0E001C0DF01ED91FC91119722813381A2
:1003200024173507B8F32497F983E8830D931C93BA
:100330008A819B812091600030916100820F931F20
:1003400090936100809360000E946B08DF91CF91D1
:100350001F910F910895FC010396928381832FEFE3
:100360003FEF34832383968385839087878310822E
:100370000895FC01118610860895CF93DF939C01A8
:10038000FB01DC011196CD91DC911297D383C283DE
:100390008C819D81958384838C819D81DC01139662
:1003A0007C936E9312977D836C8331872087F9014C
:1003B00080818F5F8083DF91CF910895CF93DF930A
:1003C000EB01488159814F3F2FEF520721F4FC0187
:1003D000A781B0850DC0DC01139601C0DF01129624
:1003E000ED91FC9113972081318142175307B0F7AB
:1003F0001296ED91FC911397FB83EA83D583C48316
:10040000BD83AC831396DC93CE931297998788872C
:10041000FC0120812F5F2083DF91CF910895CF933E
:10042000DF93FC01A085B185C281D3818481958150
:100430009D838C83C481D581828193819B838A83B0
:1004400011968D919C911297E817F90731F48481E8
:10045000958112969C938E931197118610868C919C
:1004600081508C93DF91CF9108951BBC89EF8ABD99
:100470008BE08EBD89B7806189BF089531E1FC01B1
:100480003083319722E220833197A3E3A083319711
:1004900060833197708331971082319760E8608371
:1004A00031971082319762E06083319763E0608317
:1004B000319764E06083319765E06083319766E04F
:1004C0006083319767E06083319768E0608331979C
:1004D00069E06083319760E16083319730833197C1
:1004E00032E13083319733E13083319734E1308327
:1004F000319735E13083319736E13083319737E1F9
:100500003083319738E13083319739E13083319747
:1005100030E23083319731E2308331972083319755
:1005200023E220833197408331975083319726E22D
:100530002083319727E22083319728E22083319767
:1005400029E22083319720E32083319721E3208320
:10055000869708950E943502A0910205B091030587
:10056000CD91CDBFDD91DEBFFF91EF91DF91CF91B6
:10057000BF91AF919F918F917F916F915F914F91BB
:100580003F912F911F910F91FF90EF90DF90CF90AF
:10059000BF90AF909F908F907F906F905F904F90A3
:1005A0003F902F901F900F900FBE0F90089581E005
:1005B00008950F920FB6F8940F921F9211242F9264
:1005C0003F924F925F926F927F928F929F92AF92E3
:1005D000BF92CF92DF92EF92FF920F931F932F93D0
:1005E0003F934F935F936F937F938F939F93AF93BB
:1005F000BF93CF93DF93EF93FF93A0910205B09148
:1006000003050DB60D920EB60D920E941E09A09123
:100610000205B0910305CD91CDBFDD91DEBFFF9105
:10062000EF91DF91CF91BF91AF919F918F917F918A
:100630006F915F914F913F912F911F910F91FF907B
:10064000EF90DF90CF90BF90AF909F908F907F9072
:100650006F905F904F903F902F901F900F900FBE24
:100660000F9008951F920F920FB60F9211242F939F
:100670003F934F935F936F937F938F939F93AF932A
:10068000BF93EF93FF930E94E107FF91EF91BF911A
:10069000AF919F918F917F916F915F914F913F911A
:1006A0002F910F900FBE0F901F9018950FB6F894D2
:1006B0000F92FC01828D811102C081E001C080E0B7
:1006C0000F900FBE08950FB6F8940F92FC01228D83
:1006D000838D281302C081E001C080E00F900FBE1F
:1006E00008950F931F93CF93DF93EC01042F1A8D7E
:1006F0004C8D41110CC088819981892B09F042C031
:100700008A819B810E94760A1B821A8242C0011153
:1007100017C050E08C819D810E94EE0B2C8D8C8146
:100720009D81820F911D9D838C832A813B8182173D
:10073000930750F1888199819D838C8380E029C043
:1007400050E08E819F810E94EE0B8C8D90E0919500
:10075000819591092E813F81280F391F3F832E8378
:10076000488159812417350730F42A813B81820F53
:10077000931F9F838E83023049F4112349F0115057
:1007800080E007C080E005C080E003C080E001C0D9
:1007900080E01F5F1A8FDF91CF911F910F91089515
:1007A000FC01448D4423A9F050E026813781240FB9
:1007B000351F37832683828193812817390720F0DC
:1007C0008081918197838683CB01668177810E94A6
:1007D000EE0B08951F93CF93DF93EC010FB6F894BF
:1007E0000F921E8D0BC08989882351F0CE0141964E
:1007F0000E94840981110E94100A115011169CF365
:100800008FEF8E8F0F900FBE0FB6F8940F921D8D45
:100810000BC08885882351F0CE0108960E94840978
:1008200081110E94100A115011169CF38FEF8D8FC9
:100830000F900FBEDF91CF911F910895CF93DF935B
:10084000EC010FB6F8940F92E881F9818B8D90E05E
:100850002C8D30E0829FA001839F500D929F500D00
:1008600011244E0F5F1F5B834A831A8EFD83EC8336
:100870000197289FA001299F500D389F500D1124EA
:10088000CF01840F951F9F838E838FEF8D8F8E8F67
:10089000611108C08885882369F0CE0108960E94FE
:1008A000840908C0CE0108960E94AB01CE01419692
:1008B0000E94AB010F900FBE81E0DF91CF910895B0
:1008C0000F931F93F801611103C01183008302C0CD
:1008D00051834083838F648F61E0CF010E941E04A7
:1008E0001F910F910895DF92EF92FF920F931F9344
:1008F000CF93DF93E82EF62ED42E662321F0869F29
:10090000C001112402C080E090E04F960E94FC00DC
:10091000EC01009749F08C012D2DAC01415E5F4F39
:100920006F2D8E2D0E946004CE01DF91CF911F911B
:100930000F91FF90EF90DF900895CF92DF92EF92AA
:10094000FF920F931F93CF93DF9300D000D01F929D
:10095000CDB7DEB78C017B015D834C83C22ED12CD9
:100960000FB6F8940F92F801928D838D981718F0B6
:10097000F2E0CF1211C04C2DB701C8010E947103E3
:10098000F8018189882321F0C80141960E948409D9
:100990000F900FBE81E04DC08C819D81892B21F489
:1009A0000F900FBE80E045C0D11006C0CE01019669
:1009B0000E94CC09DD24D3940F900FBE0E94DB0768
:1009C0000FB6F8940F92F801858D8F3F09F4158EBC
:1009D000F801868D8F3F09F4168E0F900FBEBE0171
:1009E0006C5F7F4FCE0101960E94D70981111BC019
:1009F000C8010E946303882381F06C817D81C80156
:100A000008960E947209C8010E94EA030E946B08BE
:100A10008111A6CF0E94D902A3CFC8010E94EA0388
:100A20000E946B089DCFC8010E94EA030E946B08D8
:100A300080E00F900F900F900F900F90DF91CF916B
:100A40001F910F91FF90EF90DF90CF9008958F92BC
:100A50009F92BF92CF92DF92EF92FF920F931F93DC
:100A6000CF93DF9300D000D01F92CDB7DEB78C01BB
:100A70006B015D834C83B22EE12C0FB6F8940F927C
:100A8000F801F28CFF2059F186809780B601C801E9
:100A90000E94D003B11015C0FA94F801F28E808143
:100AA0009181892B29F40E94B60AF80193838283ED
:100AB000F8018085882379F0C80108960E9484098E
:100AC0000AC0F801978286828189882321F0C801B3
:100AD00041960E9484090F900FBE81E061C08C8115
:100AE0009D81892B21F40F900FBE80E059C0E11049
:100AF00006C0CE0101960E94CC09EE24E3940F902B
:100B00000FBE0E94DB070FB6F8940F92F801858D97
:100B10008F3F09F4158EF801868D8F3F09F4168EEC
:100B20000F900FBEBE016C5F7F4FCE0101960E94F9
:100B3000D709811129C0C8010E9456038823F1F00A
:100B4000F80180819181892B49F40FB6F8940F92B6
:100B5000828193810E94140A0F900FBE6C817D8167
:100B6000C80141960E947209C8010E94EA030E94CE
:100B70006B08811182CF0E94D9027FCFC8010E94E9
:100B8000EA030E946B0879CFC8010E94EA030E9421
:100B90006B08C8010E945603882309F46ECF80E0D9
:100BA0000F900F900F900F900F90DF91CF911F91AA
:100BB0000F91FF90EF90DF90CF90BF909F908F901C
:100BC0000895E0919D04F0919E048081811107C0F9
:100BD0008FEF9FEF90937504809374040895E091D4
:100BE0009D04F0919E040580F681E02D0680F7813A
:100BF000E02D82819381909375048093740408950D
:100C0000CF93DF93EC018F89988D0E947801CE01FC
:100C10000E947801DF91CF9108956F927F928F9219
:100C20009F92AF92BF92CF92DF92EF920F931F935A
:100C3000CF93DF93CDB7DEB74C01F5018789908D57
:100C4000215031093C01620E731E20E00FC0822F3B
:100C500090E0FB01E80FF91F3081D501A80FB91F03
:100C600059963C938081882319F02F5F283078F3C0
:100C7000F50110A2F8E0FE1518F46894EE24E3F8EC
:100C8000F501E68AE1A212A2C50102960E94B9010D
:100C9000C5010C960E94B901F501B186A08689E0D4
:100CA00090E08E19910995878487B38AA28A13A24E
:100CB00014A215A216A217A2A801B401C3010E9492
:100CC0003E02F50191838083C114D10419F0F6012D
:100CD000B182A082DF91CF911F910F91EF90DF90B1
:100CE000CF90BF90AF909F908F907F906F9008951E
:100CF000CF93C0E010C08C2F90E09C01220F331FD7
:100D0000220F331F220F331F820F931F8F549B4FCD
:100D10000E94AB01CF5FC93070F388EA94E00E9473
:100D2000AB018FE994E00E94AB0182E994E00E945C
:100D3000AB0189E894E00E94AB018FE794E00E9448
:100D4000AB0188EA94E090939E0480939D048FE920
:100D500094E090939C0480939B04CF910895CF934B
:100D6000DF93EC010FB6F8940F9280917E048F5FB1
:100D700080937E048091020590910305892B59F49C
:100D8000D0930305C093020580917E04813099F4CD
:100D90000E94780610C080917A0481110CC0E09105
:100DA0000205F091030596898E89891720F0D0936A
:100DB0000305C0930205809176048F5F80937604CB
:100DC0002E8980917B04821710F420937B0430E0FD
:100DD000BE016E5F7F4FC901880F991F880F991F51
:100DE000880F991F820F931F8F549B4F0E94BD0144
:100DF0000F900FBE80917A04882321F08091020524
:100E000090910305DF91CF910895FF920F931F9367
:100E1000CF93DF93EC01F62E00917C0410917D04BA
:100E2000809102059091030502960E940F02CF3F28
:100E30008FEFD80769F4FF2059F060910205709197
:100E400003056E5F7F4F8FE794E00E94BD012FC0C6
:100E5000C00FD11FE0910205F0910305D383C28337
:100E6000C017D10768F46091020570910305809165
:100E70009B0490919C046E5F7F4F0E94DE0117C01F
:100E8000609102057091030580919D0490919E04EC
:100E90006E5F7F4F0E94DE01809174049091750413
:100EA000C817D90720F4D0937504C0937404DF9158
:100EB000CF911F910F91FF9008952F923F924F92E3
:100EC0005F926F927F928F929F92AF92BF92CF92DA
:100ED000DF92EF92FF920F931F93CF93DF933C012A
:100EE0001B015A012901CA010E94FC006C01892BD7
:100EF00071F088E290E00E94FC00EC01892B19F06F
:100F0000D88ECF8A06C0C6010E94780102C0C0E018
:100F1000D0E0209791F0950140E050E0812C912C99
:100F20005E016701E02E8201B101C3010E940D063E
:100F3000CE010E94AF0681E001C08FEFDF91CF911B
:100F40001F910F91FF90EF90DF90CF90BF90AF90E7
:100F50009F908F907F906F905F904F903F902F90D9
:100F60000895EF92FF920F930F2EF2E7EF2EF4E029
:100F7000FF2EF02D00E020E030E040E550E062E69A
:100F800070E089E199E00E945D07813081F4F89476
:100F90008FEF9FEF909375048093740481E08093AA
:100FA0007A0410927D0410927C040E94AA020F9190
:100FB000FF90EF900895809171048F5F809371048A
:100FC0000895EF92FF920F931F93CF93DF93809139
:100FD0007104811173C0E0907C04F0907D048FEF68
:100FE000E81AF80AF0927D04E0927C04E114F1041E
:100FF000B9F480919D0490919E0420919B043091BE
:101000009C0430939E0420939D0490939C048093B1
:101010009B04809177048F5F809377040E94E105A1
:101020008091740490917504E816F90608F44BC099
:10103000E0919D04F0919E048081811107C08FEFA3
:101040009FEF90937504809374043DC0E0919D04DC
:10105000F0919E040580F681E02DC681D7818A81BA
:101060009B81E816F90628F4909375048093740424
:101070002AC08E010E5F1F4FC8010E940F028C898B
:101080009D89892B21F0CE010C960E940F028E893A
:1010900090917B04981710F480937B0490E09C015E
:1010A000220F331F220F331F220F331F820F931F74
:1010B000B8018F549B4F0E94BD01BACF8091790433
:1010C0008F5F8093790480E0DF91CF911F910F9122
:1010D000FF90EF9008950F931F93CF93DF930FB678
:1010E000F8940F92809171048150809371048091E3
:1010F0007104811152C080917E04811133C04DC0B2
:10110000E0919704F0919804C681D781CE010C96A6
:101110000E940F028E010E5F1F4FC8010E940F0236
:101120008E8990917B04981710F480937B0490E053
:101130009C01220F331F220F331F220F331F820FF8
:10114000931FB8018F549B4F0E94BD019E89E0916F
:101150000205F09103058689981730F081E08093AD
:10116000780402C0C0E0D0E0809192048111C8CF21
:10117000CD2B11F00E94E105C0917904CC2359F0E8
:101180000E94E107882319F081E080937804C15020
:10119000B9F710927904809178040F900FBE80E027
:1011A000DF91CF911F910F910895CF93DF93EC01C1
:1011B000892B49F00E94DB0760E0CE010E94050701
:1011C0000E946B0801C080E0811102C00E94D90218
:1011D000DF91CF910895CF93DF9324C00E94DB0766
:1011E000C09189040E946B08CC23E1F00FB6F894FB
:1011F0000F92E0918E04F0918F04C681D781CE01C9
:1012000002960E940F0280917E04815080937E049A
:10121000809188048150809388040F900FBECE0186
:101220000E940006809188048111D8CFDF91CF9170
:1012300008950E94EB080E94D902FBCF80917104AF
:10124000882321F081E08093780408951092780437
:1012500020917B0401C02150822F90E0FC01EE0F11
:10126000FF1FEE0FFF1FEE0FFF1FE80FF91FEF54D8
:10127000FB4F3081332379F3AC01440F551F440FEA
:10128000551F440F551F480F591FDF010180F28180
:10129000E02D0280F381E02D1296FC93EE931197DE
:1012A0004C545B4FE417F50729F442815381FD014B
:1012B00052834183FC01EE0FFF1FEE0FFF1FEE0F65
:1012C000FF1F8E0F9F1FFC01EF54FB4F0180F28127
:1012D000E02D8681978190930305809302052093EA
:1012E0007B040895CF93DF93EB0160910205709129
:1012F0000305645F7F4F0E94DE0161E0CE010E9422
:101300000507DF91CF9108950F931F93CF93DF933C
:10131000DC011596ED91FC911697C681D7818E015F
:10132000045F1F4FC8010E940F0280917104811158
:101330001CC00A501109C8010E940F028E899091A9
:101340007B04981710F480937B0490E09C01220F9B
:10135000331F220F331F220F331F820F931FB80139
:101360008F549B4F0E94BD0105C0B80182E994E0F3
:101370000E94BD019E89E0910205F09103058689D6
:10138000891720F481E08093780401C080E0DF9128
:10139000CF911F910F91089520917704FC01208334
:1013A00020917C0430917D043283218308950FB60F
:1013B000F8940F9240917C0450917D04DB012D91B3
:1013C0003C912F3FBFEF3B0719F1DC01FC91E0910D
:1013D0007704FE1739F01196ED91FC9112974E1794
:1013E0005F07C0F4DC011196ED91FC911297DA01D0
:1013F000AE1BBF0BA217B30778F4DB01E41BF50BA0
:101400002E0F3F1F2D933C930E94CC0980E005C016
:1014100080E003C081E001C081E00F900FBE08951D
:1014200081E08093780408950F931F93CF93DF9307
:10143000FC01892B09F455C02689A0910205B091C1
:10144000030556968C91281708F04BC08485958526
:10145000992364F0A0910205B091030556963C9142
:1014600089E090E0831B9109958784878285938525
:1014700030E0A901440F551F440F551F440F551F5D
:10148000240F351F2F543B4F8217930719F58F01F7
:10149000EF012296CE010E940F02E0910205F09129
:1014A00003058689F801868B90917B04981710F4C8
:1014B00080937B0490E09C01220F331F220F331F87
:1014C000220F331F820F931FBE018F549B4F0E9428
:1014D000BD0107C0A0910205B091030556968C91FD
:1014E000868BDF91CF911F910F9108950F931F93DA
:1014F000CF93DF93FC01892B79F182A1815082A3E4
:10150000268991A1291751F181112AC0EF018F017C
:101510000E5F1F4FC8010E940F0289A18E8B29E028
:1015200030E0281B31093D872C8790917B04981768
:1015300010F480937B0490E09C01220F331F220F54
:10154000331F220F331F820F931FB8018F549B4FFD
:101550000E94BD0181E005C080E003C080E001C0C1
:1015600080E0DF91CF911F910F9108958091020546
:1015700090910305892B39F0E0910205F091030564
:1015800082A18F5F82A38091020590910305089547
:101590000F931F93CF93DF9300D000D0CDB7DEB76A
:1015A000082F84E0898385E08A8386E08B8387E047
:1015B0008C8310E014C0402F50E0012E02C05595DE
:1015C00047950A94E2F74170E1E0F0E0EC0FFD1F6F
:1015D000E10FF11D608180E00E9449001F5F14301F
:1015E00050F30F900F900F900F90DF91CF911F91BC
:1015F0000F91089541E063E080E00E9449008FE38D
:101600009FE10197F1F700C0000040E063E080E057
:101610000E9449000895CF93C82F40E061E080E028
:101620000E94490040E062E080E00E9449008C2F67
:1016300082958F700E94C80A0E94FA0A8C2F0E941D
:10164000C80A0E94FA0ACF9108952FEF83EF91E024
:10165000215080409040E1F700C0000082E00E94ED
:10166000C80A0E94FA0A82E00E94C80A0E94FA0A86
:101670008CE00E94C80A0E94FA0A8CE00E940B0BC0
:1016800081E00E940B0B0895CF93C82F41E061E0E9
:1016900080E00E94490040E062E080E00E94490052
:1016A0008C2F82958F700E94C80A0E94FA0A8C2F94
:1016B0000E94C80A0E94FA0ACF9108950F931F93BF
:1016C000CF938C01C0E003C00E94440BCF5FF801B0
:1016D000EC0FF11D80818111F7CFCF911F910F91F8
:1016E000089520E044E650E060E070E08091040559
:1016F000909105050E942705813079F487E690E0F6
:101700000E945E0B20E040E050E060E070E08091DD
:101710000405909105050E949D0480ED97E00E94CC
:10172000D508DFCF20E044E650E060E070E0809133
:101730000405909105050E942705813079F48DE616
:1017400090E00E945E0B20E040E050E060E070E03E
:1017500080910405909105050E949D0480ED97E01D
:101760000E94D508DFCFEF92FF920F9343E060E035
:1017700081E00E947304909305058093040500970F
:1017800039F020E040E050E060E070E00E949D040D
:101790008BB361E00E94BA000E94250BE12CF12C72
:1017A00002E020E030E044E650E064E770E081E7EA
:1017B0009BE00E945D0701E020E030E044E650E05D
:1017C0006AE770E082E99BE00E945D070E94B10732
:1017D00080E090E00F91FF90EF900895FB01DC0115
:1017E00002C001900D9241505040D8F70895F894EE
:0217F000FFCF29
:1017F200E70349444C4500466972737400536563BC
:101802006F6E64007461736B31007461736B3200CC
:00000001FF
